:100000000C942A000C943F000C943F000C943F0089
:100010000C943F000C943F000C943F000C943F0064
:100020000C943F000C943F000C943F000C943F0054
:100030000C943F000C943F000C943F000C943F0044
:100040000C943F000C943F000C943F000C943F0034
:100050000C943F0011241FBECFE5D4E0DEBFCDBF1E
:1000600010E0A0E6B0E0EAE4F1E002C005900D92F5
:10007000A437B107D9F70E9441000C94A3000C9457
:100080000000CF92DF92EF92FF920F931F93DF93C6
:10009000CF93CDB7DEB764970FB6F894DEBF0FBE2F
:1000A000CDBF8FEF8ABB87BBDE011196E0E6F0E0A3
:1000B00084E101900D928150E1F740E050E0A1E031
:1000C000B0E064EC79E06E010894C11CD11C88EAB0
:1000D000E82E81E6F82E8E010B5E1F4F0FC02BB36A
:1000E000CD01042E02C0880F991F0A94E2F7282B35
:1000F0002BBBCB010197F1F74F5F5F4F48305105A4
:1001000074F340E050E02BB3CD01042E02C0880F01
:10011000991F0A94E2F7809582238BBBCB0101974C
:10012000F1F74F5F5F4F4830510569F7F601808165
:1001300088BBC7010197F1F73296E017F107B9F7CD
:0A01400040E050E0DBCFF894FFCF61
:10014A003F0006005B004F0066006D007D0007005F
:04015A007F006F00B3
:00000001FF
